:020000040800F2
:1000000090080020C1010008632A0008D9270008D1
:10001000612A0008D10800088131000800000000B2
:10002000000000000000000000000000552B000848
:10003000D909000800000000652A0008572B0008B5
:10004000DB010008DB010008DB010008DB01000820
:10005000DB010008DB010008DB010008DB01000810
:10006000DB010008DB010008DB010008DB01000800
:10007000DB010008DB010008DB010008DB010008F0
:10008000DB010008DB010008DB010008DB010008E0
:10009000D5080008DB010008DB010008DB010008CF
:1000A000DB010008DB010008DB010008DB010008C0
:1000B000DB010008DB010008DB010008DB010008B0
:1000C000DB010008DB010008DB010008DB010008A0
:1000D000DB010008DB010008DB010008DB01000890
:1000E000DB010008DB010008DB010008DB01000880
:1000F000DB010008DB010008692C0008DB010008B7
:10010000DB010008DB010008DB010008DB0100085F
:10011000DB010008DB010008FD2B0008DB01000803
:10012000DB0100081D090008DB010008DB010008F5
:10013000DB010008DB010008DB010008DB0100082F
:10014000DB010008DB010008DB010008DB0100081F
:10015000DB01000829090008DB010008D130000894
:10016000DB010008DB010008DB010008DB010008FF
:10017000DB010008DB010008DB01000800000000D3
:10018000DB010008DB010008DB010008DB010008DF
:10019000DB010008DB010008DB010008DB010008CF
:1001A0000000000000000000DB010008DFF80CD0B8
:1001B00000F052FB0048004701470008900800206B
:1001C0000648804706480047FEE7FEE7FEE7FEE7F1
:1001D000FEE7FEE7FEE7FEE7FEE7FEE7E12B0008AD
:1001E000AD0100082DE9F05F0546002092469B46D0
:1001F00088460646814640241BE02846414647463D
:10020000224600F01EF953465A46C01A914110D3B7
:1002100011461846224600F005F92D1A67EB010831
:100220004F4622460120002100F0FCF817EB0009A0
:100230004E41201EA4F10104DFDC484631462A4627
:100240004346BDE8F09F40EA01039B0703D009E065
:1002500008C9121F08C0042AFAD203E011F8013BB2
:1002600000F8013B521EF9D27047D2B201E000F80B
:10027000012B491EFBD270470022F6E710B513464A
:100280000A4604461946FFF7F0FF204610BD2DE947
:10029000FE4F81EA030404F0004421F00041009481
:1002A0004FF0000B23F0004350EA01045ED052EA05
:1002B00003045BD0C3F30A54C1F30A552C44A4F2DF
:1002C000F3340194A0FB0254C1F3130141F48011F3
:1002D000C3F3130343F4801301FB024400FB034EFA
:1002E000840A970A44EA815447EA8357A4FB0768C3
:1002F00002958D0A05FB07854FEA932C04FB0C54ED
:100300002705029D4FEA065847EA1637B5EB080560
:100310006EEB070C870E920E47EA811742EA8312B2
:10032000A7FB0201B6EB0B0164EB00042B0D43EAC3
:100330000C335E1844EB1C50DA465146E7FB0201D1
:10034000C5F313044FEA0B3343EA14534FEA043264
:10035000019C43EA0603A4F10C040294009CCDE93D
:1003600000B400F0C4F803B0BDE8F08F00200146EF
:10037000F9E70EB5C10F80EAE0700844CA07002112
:1003800040F233438DE80E000A460B4600F0AFF80A
:1003900003B000BD00F0004230F000400AD0C10DB3
:1003A00001F56071C0F3160042EA0151C20840072E
:1003B00011437047002001467047000030B5041E0D
:1003C00071F1000404DB4FF00044404264EB010192
:1003D000141E73F1000405DB1C464FF0004352422B
:1003E00063EB0403994208BF904230BD01F0004323
:1003F00030B421F0004150EA010206D00A0DA2F506
:100400006072C1F31301002A02DC30BC0020704787
:10041000440F44EAC104C100E01830BC00EBC250F4
:1004200000F01FB8202A04DB203A00FA02F1002075
:1004300070479140C2F1200320FA03F31943904022
:100440007047202A04DB203A21FA02F0002170478D
:1004500021FA02F3D040C2F120029140084319462C
:1004600070470029A8BF7047401C490008BF20F012
:100470000100704710B4B0FA80FC00FA0CF050EAAA
:10048000010404BF10BC704749B1CCF1200421FA2B
:1004900004F411FA0CF118BF012121430843A3EB26
:1004A0000C01CB1D4FEA00614FEA102042BF002033
:1004B00010BC704700EBC35010440029A4BF10BC0F
:1004C0007047401C490008BF20F0010010BC704775
:1004D00010B5141E73F1000408DA401C41F100014C
:1004E00092185B411A4301D120F0010010BD2DE9A3
:1004F000F04D92469B4611B1B1FA81F202E0B0FA9A
:1005000080F220329046FFF78DFF04460F4640EA06
:100510000A0041EA0B0153465A46084313D01146DC
:1005200053EA010019D0C8F140025046FFF789FF95
:1005300005460E46504659464246FFF773FF0843AC
:1005400005D0012004E020463946BDE8F08D0020AA
:10055000054346EAE0762C4337430A986305E40AEC
:10056000A0EB08000022FD0A44EA47540A3002D5F5
:1005700000200146E9E7010510196941DDE9084558
:1005800000196941BDE8F04DA2E72DE9FE4F804614
:1005900081EA0300C00F0C46009021F0004123F0D7
:1005A0000045B8EB0200A94105D2404621469046DD
:1005B0001C460B46024623F00040104347D0270D4F
:1005C000C7F30A00C3F30A510290401A0190402871
:1005D0006BDAC3F3130040F4801B0098924620B1FD
:1005E0000023D2EB030A63EB0B0B01985946C0F1D1
:1005F00040025046FFF716FF06460D465046594644
:10060000019A00F03BF910EB08006141002487EAF1
:10061000115284EAE7731A4340D0009A62B3019AF8
:10062000012A4FEA075215DC001B61EB02014FF073
:10063000004202EA0752CDE90042001C41F5801158
:1006400032462B46FFF753FF03B0BDE8F08F40461C
:100650002146F9E7001B61EB0201001C41F5801304
:1006600000185B412018A2F5001747EB030140EA90
:10067000D570B6196D4111E06D084FEA360645EAAE
:10068000C0754FEA0752001B61EB0201001C41F5E7
:10069000801149084FEA30000019514132462B467B
:1006A00003B0BDE8F04FFFF713BF009801224000F0
:1006B0000023D0EB020263EBE073009821464FEA7F
:1006C000E074B8EB000061EB0401E9E783F000435C
:1006D0005BE781F0004158E72DE9F04D81EA030422
:1006E00004F0004B21F0004514464FF0000A23F0BF
:1006F000004150EA050220D054EA01021DD0C5F3A2
:100700000A570246C5F31303C1F31300C1F30A5697
:1007100040F4801543F48013A7EB0608101BD6465F
:1007200008F2FD3873EB050002D308F1010801E07F
:1007300092185B41B8F1000F03DA00200146BDE8D2
:10074000F08D00204FF48011064684460EE0171B02
:1007500073EB050705D3121B63EB050306434CEA55
:10076000010C49084FEA300092185B4150EA01073A
:10077000EDD152EA030012D082EA040083EA0501B7
:10078000084305D0101BAB4106D20122002306E02E
:1007900000224FF0004302E06FF0010253101AEB09
:1007A00006004CEB085110EB0A0041EB0B01BDE8D1
:1007B000F04DFFF78DBE2DE9F04D00231A461B1AB0
:1007C0008A4103DB00200146BDE8F08DC1F30A52E7
:1007D000C1F3130141F480154FF0000BD10702D192
:1007E00000186D41521E0027044640F2FF113846A2
:1007F00001EB620A3E468046024600204FF480111B
:10080000FFF71FFEC2197141BB1846EB0100B4EBA4
:10081000030C75EB000C04D3E41A65EB00051746D6
:100820000E46241908F101006D4180463428E3DDAD
:10083000F91946EB0600091BA84103D24FF0FF321D
:10084000134601E0002213461BEB070046EB0A515A
:10085000BDE8F04DFFF73CBE064C074D06E0E068F2
:1008600040F0010394E8070098471034AC42F6D3F7
:10087000FFF7A0FCD84E0008F84E0008202A06DB3F
:10088000CB17203A41FA02F043EAE07306E041FA5E
:1008900002F3D040C2F1200291400843194670474C
:1008A000094810B50068C16841F01001C1603822E4
:1008B0000649054801F000FF0448A5211F380170D2
:1008C0005A21817710BD00009401002043030020CD
:1008D000FEE70000014800F0F2B90000940000209B
:1008E00008B50B4A4FF40073136000239360D36084
:1008F00008231361074A030A13705070080A9070A6
:10090000D1706B460249044800F07AF808BD000037
:10091000A80200201D00002094000020014800F0E3
:100920005FBC0000D4010020014800F059BC000069
:100930003402002001681823CAB2103AB2FBF3F265
:10094000054B6FF30901032A9B5CC36500D9091DA0
:100950008165084670470000B44D000810B5014697
:1009600000208B698A6A4FF0C07453B1B3F5005F01
:1009700015D072B1012A0CD0022A0AD0032A09D15B
:1009800004E01AB1012A06D0022A03D1C96AC901BA
:1009900000D5012010BDC96AA142FAD010BD002ABD
:1009A000F7D0012AF2D0022AF3D0032AF3D010BDE7
:1009B00030B50468256825F48025256004686360E7
:1009C0008368402B036803D099600068C26030BD23
:1009D0009A600068C16030BD7047704790F8202071
:1009E000012A07D0022A05D0416A41F480214162E0
:1009F00001207047006842690A4342610020704745
:100A0000F0B590F820500468A468012D05D0022D9F
:100A100003D0416A41F4802153E014F0406F01D1CA
:100A2000E5004BD5C4F30164022C03D9416A41F4BB
:100A3000000146E00125A5401D608D684FF4C0739C
:100A40009DB1CE6835434E6845EAC605066803EB9E
:100A50000417F5514FF4C275076805EB04150E69CC
:100A60007E51097D012905D009E00E88CD6845EA4F
:100A70004655EBE701684E5946F480764E511179A0
:100A8000D2F805504FF4C67641EA0525016806EB19
:100A900004168D511178D2F801204FF4C47541EA43
:100AA0000221026805EB04155151006803EB0411A3
:100AB000425842F0010242500020F0BD416A41F428
:100AC000001141620120F0BD10B590F82020012AEC
:100AD00007D0022A05D0416A41F4802141620120F9
:100AE00010BD3B48D0F8002242F00102C0F80022BD
:100AF000D0F8002222F47C52C0F80022D0F8002264
:100B00004B6A42EA0322C0F800220A7D02F01F036A
:100B100001229A40D0F81C329343C0F81C32CB69B2
:100B2000B3B9D0F80C329343C0F80C328C894B68BF
:100B300064F31F434C6900EBC404C4F840320C89D1
:100B40000B6864F31F434C6900EBC404C4F84432DF
:100B5000CB69012B16D1D0F80C321343C0F80C32FC
:100B60000C884B6864F31F434C6900EBC404C4F861
:100B700040320C89CB6864F31F434C6900EBC4041A
:100B8000C4F844328B69002BD0F804320ED01343E2
:100B9000C0F804320B69002BD0F8143208D013438C
:100BA000C0F81432096A012904D008E09343EFE742
:100BB0009343F5E7D0F81C121143C0F81C12D0F88B
:100BC000001221F00101C0F80012002010BD000049
:100BD00000640040704730B590F82040012C05D0EB
:100BE000022C03D0416A41F480215DE004680029B1
:100BF00055D02469A40754D04FF4D874056804EB89
:100C000001142D5915F00405956005682D594ED035
:100C1000ED08556005682C5904F00204D4604FF4C7
:100C2000DA74056804EB01142D5905F00F05156100
:100C300005682D59C5F30725956105682C59240CC5
:100C400054614FF4DC72046802EB0112A4581C706A
:100C50000468A458240A5C700468A458240C9C708E
:100C60000468A258120EDA704FF4DE72046802EBC8
:100C70000112A4581C710468A458240A5C71046809
:100C8000A458240C9C710468A258120EDA710068F2
:100C900081B1016941F020010161002030BDE468AB
:100CA000A8E7416A41F400114162012030BD6D0D99
:100CB0001560AFE7C16841F02001C160EDE72DE9A3
:100CC000F05F0546006800244669D0F80490876804
:100CD000D0F80CB0D0F810A0D0F81880F10748D0A8
:100CE000F90714D001218160B80703D5284600F028
:100CF00018FA0CE0780702D54FF4006407E03807D3
:100D000002D54FF4805402E0284600F009FAF805B5
:100D100016D529684FF480708860B80503D5284639
:100D200000F001FA0CE0780502D544F4005407E025
:100D3000380502D544F4804402E0284600F0F2F978
:100D4000F80316D529684FF480308860B80303D5BE
:100D5000284600F0EAF90CE0780302D544F4004498
:100D600007E0380302D544F4803402E0284600F05E
:100D7000DBF9300707D55FEACB6004D5296810207E
:100D800044F40074C86070074FF0080707D55FEAA5
:100D90000B7004D52868C760284600F057F9B007E3
:100DA00006D52868C068800702D0284600F050F9B0
:100DB000700607D55FEACA6004D52968102044F49C
:100DC00080640861B00607D55FEA0A7004D5286818
:100DD0000761284600F074F9F00606D52868006916
:100DE000800702D0284600F06CF9B00308D55FEA0E
:100DF000C96005D5296810204860284600F062F9CE
:100E0000F00307D55FEA097004D5286847602846D3
:100E100000F08CF9300446D55FEA497040D5F00502
:100E200004D55FEAC87001D044F00104B00504D5D0
:100E30005FEA887001D544F00204700504D55FEACA
:100E4000487001D544F00404300529D518F0700F1E
:100E500026D008F07000402815D006DC102809D0F4
:100E600020280AD0302816D10AE050280ED0602859
:100E700011D10EE044F008040DE044F010040AE043
:100E800044F0200407E044F0400404E044F080040F
:100E900001E044F480742868816921F07001816167
:100EA000296804204860002C05D0686A20436862E5
:100EB0002846FFF78FFEBDE8F09F70B5040003D011
:100EC00094F8200010B104E0012070BD204600F02D
:100ED00081F82068016821F00201016000F0F4FB54
:100EE0000546052604E000F0EFFB401B0A2811D858
:100EF000206840688007F6D42068016841F001014D
:100F0000016000F0E1FB05460BE000F0DDFB401B5B
:100F10000A2806D9606A40F40030606284F82060D4
:100F2000D2E720684068C007EFD0207E0128206803
:100F300001683DD021F080010160607E01282068B9
:100F4000016838D021F040010160A07E01282068AE
:100F5000016833D021F020010160E07E0128206883
:100F600001682ED041F010010160207F0128206827
:100F7000016829D021F008010160607F0128206804
:100F8000016824D021F004010160D4E90201084382
:100F9000D4E90412114308436168491E08432168DB
:100FA000C86100206062012084F82000002070BD2C
:100FB00041F08001C0E741F04001C5E741F0200168
:100FC000CAE721F01001CFE741F00801D4E741F072
:100FD0000401D9E710B586B0044614216846FFF72E
:100FE0004BF917492068884227D11648002102682A
:100FF00042F000720260006800F000700590114835
:101000001038026842F0080202600068022200F014
:10101000080005900320CDE90210CDE90002092067
:1010200004906946084800F05FFA00221146142037
:1010300000F0B8FB142000F0A7FB06B010BD0000C4
:101040000064004040380240000C0240704700003D
:1010500000B5184A016889B0914228D107AB6A46A9
:101060000021FFF7B8FD0098A0F50070013801D00D
:1010700001281CD100981049401EC0B208700F49C9
:1010800000EB800201EB420031F812300381BDF821
:101090001C305BBA21F81230BDF81E1049BA4180ED
:1010A000BDF8201049BA81809DF82210817109B0E5
:1010B00000BD0000006400401C00002094020020DD
:1010C000704770477047000070B5044690F82000E4
:1010D000012804D0606A40F40020606218E0022019
:1010E00084F820002068016821F00101016000F00F
:1010F000EBFA05460EE000BF00F0E6FA401B0A28B6
:1011000008D9606A40F400306062052084F820004D
:10111000012070BD20684068C007EDD1606270BDDD
:1011200070477047704770477047704770472DE9A8
:10113000F0410446876D00F0C7FA064694F8350082
:101140000025022806D08020606584F834500120F4
:10115000BDE8F0812068016821F016010160206877
:10116000416921F080014161206C08B9A06C20B177
:101170002068016821F0080101602068016821F001
:10118000010101600BE000F09FFA801B052806D9E1
:101190002020606504F8345F03206070D8E7206881
:1011A0000068C007EFD194F85C103F208840B86019
:1011B00004F8345F012060700020C9E790F8351012
:1011C000022903D08021416501207047052180F864
:1011D00035100068016821F00101016000207047AE
:1011E0002DE9F84304464FF00009CDF8009063481C
:1011F0004FF41651A56D0068B0FBF1F72E6894F816
:101200005C10082000FA01F131420FD021680A6811
:1012100052070BD50A6822F004020A6094F85C10A9
:101220008840A860606D40F00100606594F85C1033
:101230004FF0010808FA01F0304208D021684969EE
:10124000090604D5A860606D40F00200606594F85E
:101250005C1004208840304208D021680968890762
:1012600004D5A860606D40F00400606594F85C10DF
:1012700010208840304218D021680968090714D529
:10128000A86020680168490304D50068000308D5F8
:10129000A16C07E00168C90503D4016821F00801C9
:1012A0000160216C09B12046884794F85C10202029
:1012B0008840304231D021680968C9062DD5A86020
:1012C00094F8350005282068016806D0490347D501
:1012D000006800031DD4616C1CE021F01601016060
:1012E0002068416921F080014161206C08B9A06C3F
:1012F00020B12068016821F00801016094F85C10B9
:101300003F208840A86084F8349084F83580216DAF
:101310001FE0E16B09B120468847606D00282BD0A3
:10132000606DC00714D0052084F83500206801687E
:1013300021F0010101600098401C0090B84203D8E0
:1013400020680068C007F6D184F8349084F83580AE
:10135000E16C002910D001B02046BDE8F0430847F9
:101360000168C905D5D4016821F01001016084F835
:10137000349084F83580CCE7BDE8F883180000206D
:101380002DE9F041044600F09FF906465CB10025C6
:1013900084F83450022084F835002068016821F078
:1013A000010101600DE00120BDE8F08100F08CF941
:1013B000801B052805D920206065032084F83500AE
:1013C000F2E720680068C007F0D122681168204861
:1013D0000140D4E901031843D4E9033633431843E9
:1013E00063691843A3691843E3691843236A1843E0
:1013F0000843616A042903D1D4E90B131943084354
:10140000106020684069666A20F0070130460E438C
:10141000012704280CD1A06A0643E06A40B12046A7
:10142000FFF79CFA20B14020606584F83570BAE778
:10143000206846612046FFF77DFA94F85C203F2142
:1014400091408160656584F835700020ACE700004C
:101450003F8010F02DE9F0410446866D90F834008D
:10146000002501280DD0012084F8340094F835704F
:101470000020012F07D084F8340002252846BDE85B
:10148000F0810220FBE7022784F835706065204672
:10149000FFF78EFA94F85C103F208840B060206817
:1014A000016841F016010160206C20B120680168DC
:1014B00041F0080101602068016841F0010101600C
:1014C000DCE7000070B5044600F0FEF80546601C3D
:1014D00002D004480078044400F0F6F8401BA04213
:1014E000FAD370BD0C0000202DE9F84F00224FF018
:1014F000010803254FF00F0E0B6808FA02F4234091
:10150000A3426ED14E68012E05D0022E03D0112EBB
:1015100001D0122E12D186684FEA420C05FA0CF760
:10152000BE43CF6807FA0CF7374387604668A64387
:101530000C79C4F30014944034434460C6685700E7
:1015400005FA07FC8C6826EA0C06BC403443C460EC
:101550004C68022C01D0122C13D1D40800EB840467
:10156000A346D4F8209054074FEAD46A0EFA0AF63C
:1015700029EA06090E6906FA0AF646EA0906CBF8D0
:10158000206004680E7924EA0C0406F00306BE40CD
:10159000264306604C68E4006FD53B4C266846F451
:1015A00080462660246822F0030604F480440094F8
:1015B000364C3444A446D4F808489607360F0EFA41
:1015C00006F7BC43324FB84201D100272EE0314F1D
:1015D000B84201D1012729E02F4FB84202D102279A
:1015E00024E04AE02D4FB84201D103271EE02C4FE2
:1015F000B84201D1042719E02A4FB84201D105278A
:1016000014E0294FB84201D106270FE0274FB84216
:1016100001D107270AE0264FB84201D1082705E08B
:10162000244FB84201D1092700E00A27B7402743D9
:10163000CCF80878204E34684F689C43FF0300D5EF
:101640001C4334601C4E361D34684F689C43BF03F6
:1016500000D51C433460184E083634684F689C43EC
:10166000FF0200D51C433460134E0C3634684F68BB
:101670009C43BF0200D51C433460521C102AFFF467
:101680003BAFBDE8F88F0000443802400030014015
:10169000000002400004024000080240000C02402A
:1016A000001002400014024000180240001C0240DA
:1016B0000020024000240240003C01400AB1816148
:1016C00070470904FBE7000001488068704700008C
:1016D0000C00002002488168027811448160704744
:1016E0000C0000200B4810B5016841F40071016046
:1016F000016841F480610160016841F4807101601A
:10170000032000F06FF8002000F006F800F024F845
:10171000002010BD003C024070B50D4D04464FF452
:101720007A712878B1FBF0F00A490968B1FBF0F052
:1017300000F06BFC48B9102C07D200222146501E45
:1017400000F030F800206C6070BD012070BD00001A
:101750000C000020180000200A4808B5016841F478
:1017600080410160006800F4804000900548001F3F
:10177000016841F080510160006800F080500090E5
:1017800008BD000044380240002809DB00F01F02B9
:10179000012191404009800000F1E020C0F80011D3
:1017A00070470000F0B40E4B1B680C46C3F30223D5
:1017B000C3F10705042D00D90425191D072901D2FD
:1017C000002300E0DB1E012606FA05F1491E214038
:1017D00099409E40761E16403143F0BC01F0E9BCB2
:1017E0000CED00E0064900F0070208684FF6FF0321
:1017F000184040EA0220034A104308607047000086
:101800000CED00E00000FA052DE9F0470E4605005A
:1018100065D0DFF81481D8F80000F7B200F00F00AF
:10182000B04207D288F80070D8F8000000F00F002E
:10183000B04254D128683D4C810712D5400703D5EA
:10184000206840F4E05020602878000703D5206825
:1018500040F4604020602068A96820F0F000084350
:1018600020602878C0072DD03049686808390128E1
:1018700012D0022813D0032811D009688907002943
:101880002DDA216821F0030101432160FFF71CFFDD
:10189000814641F2883A0EE009688903EFE709685A
:1018A0008901ECE7FFF710FFA0EB0901514502D9D0
:1018B0000320BDE8F0872068696800F00C00B0EBF9
:1018C000810FEFD1D8F80010404601F00F01B1426E
:1018D00007D90770006800F00F00B04201D0012066
:1018E000E7E72878400705D52068E96820F4E0504C
:1018F000084320602878000706D52068296920F46D
:10190000604040EAC100206000F038F82168084AD1
:10191000C1F30311515CC8400649086006480068DD
:10192000FFF7FAFE0020C4E7003C024008380240FE
:10193000BC4D000818000020100000200448054994
:1019400000680968044AC1F38221515CC8407047AD
:101950001800002008380240CC4D00080448054912
:1019600000680968044AC1F34231515CC8407047BD
:101970001800002008380240CC4D0008154810B56A
:10198000006810F00C02144813D01449042A0FD038
:10199000082A0ED10F4C241F2268236802F03F0250
:1019A0005B0207D52068C0F38810A0FB010106E0A8
:1019B000084610BD2168C1F38811A1FB0001002376
:1019C000FEF710FC2168C1F30141491C4900B0FB3E
:1019D000F1F010BD083802400024F400001BB700ED
:1019E0002DE9F84F04006ED02078DFF83C93C00753
:1019F000A9F104054AD009F104000168C1F381018D
:101A0000012908D00068C0F3810002280AD1D9F862
:101A10000000400206D52868800337D5606800289A
:101A2000E1D033E06068B0F5803F10D0B0F5A02F72
:101A3000286810D020F480302860286820F48020A6
:101A400028606068A8B1FFF73FFE06460DE02868F1
:101A500040F48030F4E740F480202860F7E700BFCE
:101A6000FFF732FE801B642873D828688003F7D5FF
:101A70000CE0FFF729FE064605E000BFFFF724FE55
:101A8000801B6428F0D828688003F7D42078DFF81A
:101A90009C8280074FF0000A3ED5A348001D0168D4
:101AA00011F00C0F08D00068C0F3810002280BD1A0
:101AB000D9F80000400207D42868800716D5E068EE
:101AC000012800D112E02BE1E068B8B10120C8F88C
:101AD0000000FFF7F9FD064605E000BFFFF7F4FD43
:101AE000801B0228C0D828688007F7D5286821699C
:101AF00020F0F80040EAC10028600DE0C8F800A01E
:101B0000FFF7E2FD064604E0FFF7DEFD801B02283A
:101B10001FD828688007F7D42078000722D5824E86
:101B200083486169703671B101210160FFF7CCFD16
:101B3000074604E0FFF7C8FDC01B022809D830683B
:101B40008007F7D50EE0C0F800A0FFF7BDFD0746FF
:101B500005E082E0FFF7B8FDC01B02287DD83068A1
:101B60008007F7D42078400768D5DFF8BCB100279C
:101B70000BF13C0BDBF80000C0000BD4DBF80010CD
:101B800041F08051CBF80010DBF80000012700F095
:101B900080500090674E3068C00510D4306840F423
:101BA00080703060FFF790FD009005E0FFF78CFD3E
:101BB0000099401A022850D83068C005F6D55A4E10
:101BC000A0686C3601280FD00528306810D020F0AE
:101BD00001003060306820F004003060A068B8B1C7
:101BE000FFF772FD00900FE0306840F00100F4E76D
:101BF00040F004003060F7E7FFF766FD0099411AF6
:101C000041F28830814266D830688007F4D50EE012
:101C1000FFF75AFD009007E0FFF756FD0099411AC3
:101C200041F28830814256D830688007F4D42FB111
:101C3000DBF8001021F08051CBF80010A069C8B388
:101C40003949091D0968C1F3810102294AD00228D6
:101C5000504607D0C8F8600000E03CE0FFF734FDD4
:101C600004463BE04746C8F86000FFF72DFD0646F6
:101C700005E000BFFFF728FD801B02282BD828684D
:101C80008001F7D4D4E907010843A16A2A4A490828
:101C900002EB0141626A41EA8211084394F82C1078
:101CA00040EA0161C9F8001001203866FFF70CFD19
:101CB000044606E036E000BFFFF706FD001B0228E1
:101CC00009D828688001F7D52CE000BFFFF7FCFC9D
:101CD000001B022802D90320BDE8F88F2868800184
:101CE000F4D41FE00128F7D0D9F80000E26900F42D
:101CF0008001914214D1226A00F03F0191420FD13C
:101D000047F6C071626A0140914209D1A26A00F4AB
:101D10004031914204D1E16A00F07060884201D004
:101D20000120D9E70020D7E70438024000004742ED
:101D3000800E4742007000400000FFFF70B50400B5
:101D400005D00025A56294F8510010B106E00120ED
:101D500070BD84F85050204600F030F8022084F81E
:101D600051002068016821F040010160D4E90101BF
:101D70000843D4E903121143084361690843218BE6
:101D800001F400710843E1690843216A0843A16A2C
:101D9000084321680860A069042101EA1040616AD3
:101DA0000843216848602068C16921F40061C1616D
:101DB0006565012084F85100002070BD10B586B023
:101DC000044614216846FEF757FA144920688842F1
:101DD00021D113480021026842F480120260006899
:101DE00000F4801005900E481438026842F020027A
:101DF0000260006800F0200005904FF460700090D1
:101E00000220CDE9010103200390052004906946DA
:101E10000448FFF769FB06B010BD00000050014008
:101E200044380240001402402DE9F84F044690F86F
:101E3000500000270A9E1D4692468B464FF001092E
:101E400001280ED0012084F85000FFF73DFC8046A9
:101E500094F85100616801280CD0B1F5827F07D158
:101E600002E00220BDE8F88FA16809B9042801D07A
:101E70000227C2E0BBF1000F27D0BAF1000F24D037
:101E80001DB394F85100042802D0052084F85100B5
:101E900000206065C4F838A0E587A587C4F830B095
:101EA000E586A5862064606420680168490603D43D
:101EB000016841F040010160E068B0F5006F6068C2
:101EC00005D0E8B3012D46D07FE0012795E008B1A9
:101ED000012D39D1206B21680088C860206B801CDF
:101EE0002063E08E401EE0862EE02068816889072E
:101EF0000FD5E18E69B1B9F1010F0AD1216B0988C3
:101F0000C160206B801C2063E08E401EE0864FF095
:101F1000000920688168C9070CD0E18F51B1C06801
:101F2000A16B0880A06B801CA063E08F401EE0873F
:101F30004FF00109FFF7C8FBA0EB0800B04200E03A
:101F400009E001D3701C50D1E08E0028CDD1E08F84
:101F50000028CAD13FE0206B216800780873206B0D
:101F6000401C2063E08E401EE0862EE020688168E1
:101F700089070FD5E18E69B1B9F1010F0AD1216B43
:101F800009780173206B401C2063E08E401EE086C0
:101F90004FF0000920688168C9070CD0E18F51B16A
:101FA000C068A16B0870A06B401CA063E08F401E4E
:101FB000E0874FF00109FFF787FBA0EB0800B04274
:101FC00002D3701C01D010E07EB1E08E0028CDD18C
:101FD000E08F0028CAD142463146204600F044FD39
:101FE00028B101272020606507E0032705E0A068ED
:101FF00018B92068C16880680090012084F85100F9
:10200000002084F8500038462CE710B5401EB0F18F
:10201000807F01D3012010BD4FF0E02460610F21CB
:10202000601701F0C6F80020A061072020610020A1
:1020300010BD70477047000070B590F83C20012A31
:1020400032D0012480F83C40022280F83D20036811
:102050005A689D6822F070060A6832435A60134B32
:1020600002689A4214D0B2F1804F11D0104B9A42BC
:102070000ED0104B9A420BD00F4B9A4208D00F4B08
:102080009A4205D00E4B9A4202D00E4B9A4204D18E
:10209000496825F080031943916080F83D40002194
:1020A00080F83C10084670BD022070BD0000014061
:1020B0000004004000080040000C00400004014003
:1020C000004001400018004010B5040003D094F80F
:1020D0003D0010B107E0012010BD002084F83C0055
:1020E000204600F00DF8022084F83D00211D2068F4
:1020F00000F0C0FD012084F83D00002010BD00006C
:1021000008B50068154988420FD11548016841F0AB
:10211000100101600068002200F0100000901146DC
:102120003620FFF73FFB362012E00E49884213D1DC
:102130000B48001D016841F00201016000680022A7
:1021400000F00200009011462E20FFF72BFB2E20FE
:10215000BDE80840FFF718BB08BD000000100040B4
:1021600040380240000401400168CA6842F00102A0
:10217000CA600068816801F00701062903D0016880
:1021800041F001010160002070470168CA6822F037
:102190000102CA600068016A41F21112114207D1BE
:1021A000016A9210114203D1016821F0010101601E
:1021B0000020704770B5044690F83C00012817D005
:1021C000012584F83C50022084F83D002068826894
:1021D00022F0770222F47F4282600868502830D0D3
:1021E0000DDC20284DD005DC98B310283BD148E009
:1021F000022070BD302844D0402834D139E0602816
:1022000028D0702806D0B0F5805F2CD0B0F5005FE4
:1022100029D10AE0CB68D1E90121206800F08EFDC8
:102220002068816841F0770109E0CB68D1E901219C
:10223000206800F083FD2068816841F4804181605E
:1022400011E0CA684968206800F08AFD50212068C2
:1022500007E016E0CA684968206800F092FD602136
:10226000206800F075FD84F83D50002084F83C00A3
:1022700070BDCA684968206800F072FD402120687E
:10228000EFE7226801461046EBE7704770B5044659
:10229000006801694FF00005C943890715D4C1687A
:1022A000C943890711D4E91E016101202077206804
:1022B00080698007204602D0FFF7E7FF04E000F0C6
:1022C00098F8204600F096F8257720680169C94300
:1022D000490717D4C168C943490713D46FF00401F3
:1022E0000161022020772068806910F4407F204639
:1022F00002D0FFF7CAFF04E000F07BF8204600F0B0
:1023000079F8257720680169C943090716D4C1689F
:10231000C943090712D46FF0080101610420207736
:102320002068C0698007204602D0FFF7AEFF04E0B6
:1023300000F05FF8204600F05DF82577206801691D
:10234000C943C90617D4C168C943C90613D46FF07D
:1023500010010161082020772068C06910F4407FD7
:10236000204602D0FFF791FF04E000F042F820463B
:1023700000F040F8257720680169C943C90708D1F2
:10238000C168C943C90704D1891E0161204600F014
:1023900032F820680169C943090609D4C168C943F4
:1023A000090605D46FF0800101612046FFF741FE68
:1023B00020680169C943490609D4C168C94349066F
:1023C00005D46FF040010161204600F015F8206847
:1023D0000169C94389060BD4C168C943890607D47A
:1023E0006FF0200101612046BDE87040FFF722BE7A
:1023F00070BD704770477047704710B5044600685D
:10240000416994F83920C1F3C011212A0BD151B18F
:10241000416921F080014161206B08B1FEF787FE20
:10242000204600F03AFD2068416994F83A20C1F353
:102430008011222A0BD151B1416921F04001416143
:10244000606B08B1FEF773FE204600F018FD002017
:1024500010BD704770B5026804461068D1685369B2
:1024600010F00F0F53D003F0010501F490762E43C6
:102470005FD0C20705D0CA0503D5E26B42F0010266
:10248000E263420705D5DA0703D0E26B42F00202AD
:10249000E263820705D5DA0703D0E26B42F004025B
:1024A000E263020707D501F020022A4303D0E26B62
:1024B00042F00802E263E26B002A34D0800604D5C1
:1024C000880602D5204600F0F1FC20684069E16BE7
:1024D000C0F3801001F008010143204624D000F031
:1024E000CEFC2068416949061AD5416921F04001B6
:1024F0004161606BA0B11B490165606BFEF75EFE38
:10250000002810D0606B016DBDE87040084783065D
:102510000FD58B060DD52046BDE8704000F0C6BC37
:102520002046FFF796FF70BDFFF793FF0020E063A2
:1025300070BD030606D50B0604D52046BDE87040E5
:1025400000F094BD4006F3D54806F1D5D168204689
:1025500021F04001D160202184F8391000F03AF9CF
:1025600070BD0000A72D000870B5040004D094F8D9
:102570003900002510B106E0012070BD84F8385004
:10258000204600F023F8242084F839002068C16830
:1025900021F40051C160204600F0D4FC206801699C
:1025A00021F4904101612068416921F02A014161D3
:1025B0002068C16841F40051C160E563202084F8BF
:1025C000390084F83A00002070BD00002DE9F04188
:1025D00086B0064614216846FDF74EFE3149306844
:1025E00088425BD130480024016841F0200101603D
:1025F000006800F0200005902B481438016841F075
:10260000400101600068694600F0400005904FF409
:10261000844000900220CDE90104032003900820AB
:1026200004902248FEF760FF224D21484FF4806855
:1026300087052860C5E90174C5E903486C614FF45A
:102640004030AC61C5E9074028466C62FEF798FE51
:1026500008B1FEF7C2F97563AE63164D14486035D4
:102660007830E5E802074020A5E81101C00245F8EE
:102670001449AC61C5E907400E486C626030FEF752
:102680007FFE08B1FEF7A9F9356300221146472005
:10269000AE63FFF787F84720FFF776F806B0BDE88E
:1026A000F08100000014014044380240001802404C
:1026B00028640240D4010020F8B5044690F83A009E
:1026C00020283CD1C1B3BAB394F83800012836D0E1
:1026D000012084F83800A162A2850025E56322204C
:1026E00084F83A00636B1748D863636B1648186424
:1026F000636B1648D864606B134605650846666BC5
:10270000216802463046091DFEF7A4FE20680168D4
:102710004168009184F83850C16841F48071C1600B
:102720002068416941F0010141612068416941F03F
:10273000400141610020F8BDFFE70120FBE70220D6
:10274000F9E70000012E00083D2E0008B72D000813
:102750007047704770B5044690F83900202830D192
:1027600069B362B394F8380001282AD0012084F8B4
:1027700038002162A284E2840025E563212084F8E8
:102780003900236B1048D863236B10481864236BFF
:102790000F48D864206B134605652668206B321DF0
:1027A000FEF758FE21686FF04000086084F838504A
:1027B0002068416941F080014161002070BD012025
:1027C00070BD022070BD0000472E0008752E000865
:1027D000B72D000870477047FEE700000F4810B59E
:1027E0000D4901600321416000214FF410228160F6
:1027F000C0E903124FF400124261017641768176FE
:10280000C17601774177FEF758FB002803D0BDE879
:102810001040FEF7E2B810BD0064004094000020B4
:102820000D4808B5016841F480010160006800228C
:1028300000F48000009011463920FEF7B3FF3920E4
:10284000FEF7A2FF002211464520FEF7ABFFBDE8D0
:1028500008404520FEF798BF303802402DE9F0418E
:1028600086B014216846FDF707FD2E480024016854
:1028700041F040010160016801F0400105910168EB
:1028800041F001010160016801F001010591016859
:1028900041F008010160016801F00801059101683B
:1028A00041F080010160016801F08001059101683B
:1028B00041F02001016000681B4E00F020000590EF
:1028C000012228213046FEF7F9FE184F0022402150
:1028D0003846FEF7F3FEDFF858800022022140461A
:1028E000FEF7ECFE282000900125CDE90154694651
:1028F00030460394FEF7F8FD40200090CDE90154E6
:10290000694638460394FEF7EFFD02200090CDE9BA
:102910000154694640460394FEF7E6FD06B0BDE863
:10292000F081000030380240001C024000140240D8
:1029300000180240104810B50E4901604FF4827132
:102940004160002102228160C0E90312012242613C
:10295000520282613022C0E90721416281620A216C
:10296000C162FFF7EBF9002803D0BDE81040FEF785
:1029700034B810BD00500140BC0000201CB500243C
:102980000F4800940D490194016040F24731C0E9BD
:10299000011440F24D118461C160FFF795FB08B14D
:1029A000FEF71BF80094694605480194FFF744FBC5
:1029B000002801D0FEF711F81CBD000000100040F7
:1029C0001401002010B586B000241648009401942C
:1029D00002940394049412490594C0E9001484609D
:1029E000C460046144618461FFF76EFB08B1FDF7C8
:1029F000F4FF4FF48050009069460A48FFF7DAFB75
:102A000008B1FDF7EAFF049404A906480594FFF70E
:102A100013FB002801D0FDF7E0FF06B010BD000059
:102A200000040140540100200C4810B50A4901601F
:102A30004FF4E1314160002181600C22C160C0E9A6
:102A400004128161C161FFF78FFD002803D0BDE84A
:102A50001040FDF7C2BF10BD0014014094010020DA
:102A6000FEE770477047000038B504461248134B24
:102A70000068B0FBF3F04FF47A735843009060683D
:102A8000B0F5827F0DD10B460092002280212046B6
:102A900000F016F870B1606D40F020006065032012
:102AA00038BD009830B1401E009020688068C04357
:102AB0000006F6D5002038BD1800002000366E0153
:102AC0002DE9F0411D4617460E460446DDF81880F4
:102AD00008E0681C06D0FEF7F7FDA0EB0800A8424E
:102AE0000BD255B12068806836EA000030D0002053
:102AF000B842EED10020BDE8F0812068416821F0A5
:102B0000E00141606068B0F5827F0BD1A068B0F54C
:102B1000004F02D0B0F5806F04D12068016821F029
:102B200040010160A06AB0F5005F09D1206801682A
:102B300021F4005101602068016841F400510160F6
:102B4000012084F85100002084F850000320D2E7CF
:102B50000120CDE77047FEF7BDBD000030B593B052
:102B600030216846FDF788FB14210CA8FDF784FB93
:102B700019480025016841F080510160006800F0AB
:102B8000805011901548016841F44041016000688F
:102B9000022400F4404011900120009000040190B4
:102BA0008001CDE9064006200890A820CDE909045F
:102BB00004200B906846FEF713FF0CA90F2081E854
:102BC00031004FF4A0500F90E002109005210CA8A6
:102BD000FEF71AFE13B030BD4038024000700040CE
:102BE0000548016841F47001016003494FF000603D
:102BF000803908607047000088ED00E010B5144887
:102C0000FFF744FB01F012FE01F0ACF801F000FB0D
:102C100000F07EFA0F4890ED000A0F48D0ED000A50
:102C20000E4870EE200A90ED0B0A0D4801F0A2FF4D
:102C30000C4880ED000ABDEEC00ABDE8104010EE61
:102C4000100A01B210EE100A00B2FDF749BE0000F2
:102C5000140100208400002088000020C002002011
:102C6000B8030020080000200148FFF70FBB000058
:102C700054010020F0B50268254C264D264E274F02
:102C8000274B4FF0804CA04209D0604507D0A842A6
:102C900005D0B04203D0B84201D0984204D122F00E
:102CA000700E4A6842EA0E02A0421BD0604519D05D
:102CB000A84217D0B04215D0B84213D0984211D0D4
:102CC000184DA8420ED0184DA8420BD0174DA8425F
:102CD00008D0174DA84205D0164DA84202D0164D77
:102CE000A84203D122F44075CA682A434D6922F0F4
:102CF00080022A4302608A68C2620A688262A04235
:102D000001D0984201D10969016301214161F0BDFF
:102D1000000001400004004000080040000C00409A
:102D200000040140004001400044014000480140CF
:102D300000180040001C00400020004010B58468CE
:102D400042EA032224F47F440A432243826010BDF6
:102D5000826822F070020A4342F0070181607047E6
:102D600010B5036A046A24F001040462846924F043
:102D7000F00444EA021423F00A020A438461026266
:102D800010BD10B5036A23F0100303628369046A5F
:102D900023F4704343EA023224F0A00343EA011112
:102DA0008261016210BD10B5806B0021C185C184B4
:102DB000FFF74FFB10BD70B5846B2068406994F835
:102DC0003910C0F3C0100025212904D118B1E584C1
:102DD000204600F062F82068406994F83A10C0F389
:102DE0008010222904D118B1E585204600F047F86B
:102DF000E06B40F01000E0632046FFF72AFB70BD57
:102E000010B50146806B09680968C90513D4002113
:102E1000C1850168CA6822F48072CA6001684A6983
:102E200022F001024A6101684A6922F040024A61C7
:102E3000202180F83A10FFF78BFC10BD10B5806B95
:102E4000FFF787FC10BD10B50146806B0968096863
:102E5000C9050CD40021C18401684A6922F08002AE
:102E60004A610068C16841F04001C16010BDFFF7D0
:102E7000B1FC10BD10B5806BFFF7ADFC10BD016853
:102E8000CA6822F49072CA6001684A6922F001029D
:102E90004A61202180F83A1070470168CA6822F020
:102EA000C002CA60202180F83910704710B590F830
:102EB0003A10222901D0022010BD8168B1F5805F4F
:102EC00011D00169002901681FD0496801F07F0312
:102ED000816A4A1C82620B70C18D491E0904090C6B
:102EE000C18518D02BE00269816A002A0268526805
:102EF00005D0D2B20A80816A491C8162ECE7C2F334
:102F000008020A80816A891CF7E74A68816A4B1CBB
:102F100083620A70E0E70168CA6822F02002CA6092
:102F20000168CA6822F48072CA6001684A6922F0A6
:102F300001024A61202180F83A10FFF709FC0020C5
:102F400010BD00002DE9F041044600680169E26807
:102F500021F44051114301612169A068E2690843ED
:102F60006169114308432168CA6849F20C639A43B6
:102F70000243CA6020684169A26921F4407111438B
:102F80004161E069192764253226B0F5004F354AC2
:102F9000354920684FF0000806D0884201D09042A1
:102FA00036D1FEF7DBFC35E0884201D0904202D1F9
:102FB000FEF7D4FC01E0FEF7C1FC61684A18A0FBF3
:102FC000070148EB0803FDF70DF90146B0FBF5F0EA
:102FD0000201B1FBF5F06FF01803584301EB8000DC
:102FE00006EBC000B0FBF5F000F0F80002EB400289
:102FF000B1FBF5F0584301EB800006EBC000B0FBDD
:10300000F5F000F00700216810448860BDE8F08109
:10301000FEF794FC61688B0F8A00A0FB0701FDF7A7
:10302000E1F80146B0FBF5F06FF01802504301EBF8
:10303000800006EB0010B0FBF5F000F0F002B1FBF1
:10304000F5F002EB0012B1FBF5F06FF018035843F6
:1030500001EB800006EB0010B0FBF5F000F00F0074
:10306000D1E70000001401400010014090F8391031
:10307000212901D0022070478168B1F5805F016A83
:103080000BD04A1C0262026809785160C18C491E4B
:103090000904090CC1840ED017E009880268C1F345
:1030A0000801516001690029016A02D0491C0162CE
:1030B000ECE7891CFBE70168CA6822F08002CA605D
:1030C0000068C16841F04001C16000207047000005
:1030D00010B50D48FFF7BEF90B4C20680068C043DF
:1030E000C00610D42046FFF788F9084800F0DCFD40
:1030F00021686FF0100008602046BDE810403822BB
:103100000249FFF7D9BA10BD940100204303002003
:10311000174A30B4518817480B0A4370817092885F
:10312000140AC4700271437181711349C47102722F
:103130000A6BC0F80920CA6AC0F80D20896AC0F875
:10314000111000F180018A6CC0F81520096DC0F8DB
:10315000191000220121435C491CC9B21A441D29DF
:10316000F9D3427730BC1F2202490448FFF7F2BA74
:103170009402002024030020C002002094010020BB
:10318000FEE703B401984100009850EAC12018BF3F
:1031900004204A0D18BF40F0010040F2FF72B2EB6C
:1031A000515F08BF40F00200012808BF052002B0AF
:1031B00070470907090E002804DB00F1E02080F8C1
:1031C0000014704700F00F0000F1E02080F8141D9B
:1031D000704700000000000070B5C1482DED020BE3
:1031E0002DED0E8B82B0119D25F000449FEDBEDBCE
:1031F0009FEDBFEB84423EDBA4F140511098A1F15A
:103200007F6108430FD0BC48844202DC28D110986B
:1032100030B39DED100B02B0BDEC0E8B02B0BDE8DB
:10322000704000F0B0BC9DED100B53EC1D2B51EC29
:10323000100BFDF72CF89DED100B41EC180B53EC27
:103240001E2B51EC100BFDF722F853EC182BFDF759
:103250009CF941EC100B02B0BDEC0E8B02B070BDBE
:10326000012000F0D5FC02B0BDEC0E8B02B0BDE831
:10327000704000F09DBCA1489FEDA18B844256DABE
:103280009DED100BB4F1795F0ADA51EC100BFFF7EA
:1032900078FF042808BF00F09BFC9DED100BDAE7D7
:1032A00053EC102B51EC100BFCF7F1FF41EC190B18
:1032B00095480621B0EE490AF0EE690A784400F01C
:1032C000E6FB53EC192B51EC100BFCF7E0FF41EC43
:1032D0001A0B8E48B0EE490AF0EE690A04217844D0
:1032E00000F0D5FB53EC192B51EC100BFCF7CFFF82
:1032F00053EC182BFDF749F941EC100B51EC1A0B6C
:1033000053EC102BFDF7E8F9CDE900019DED000B22
:1033100053EC102B9DED100B51EC100BFCF7B7FF8D
:103320009DED101B53EC112BFDF72FF9D2E09DED15
:10333000100B51EC100B00F0ABFC53EC182BFDF70D
:10334000C8F99FED730BCDE9000153EC102B9DEDF7
:10335000000B51EC100BFCF79AFF41EC190B6E4877
:103360000621B0EE490AF0EE690A784400F08FFBBE
:1033700053EC192B51EC100BFCF789FF41EC1B0BA4
:103380006648B0EE490AF0EE690A0421784400F07C
:103390007EFB53EC192B51EC100BFCF778FF53EC30
:1033A000182BFDF7F2F841EC1C0B51EC190B01F056
:1033B000CAFC41EC180B5A489FED5BABA04222DCE3
:1033C00053EC1C2B51EC1B0BFDF786F9CDE90001EA
:1033D0009DED000B51EC180B53EC102BFCF757FF35
:1033E00053EC182BFDF7D1F853EC1A2BFCF74FFFD9
:1033F00053EC1D2BFDF76AF953EC1E2BFDF769F911
:1034000041EC100B5FE08DED008B002000909DEDF6
:10341000000B51EC180B53EC102BFDF7B6F89DED9B
:10342000000B41EC1E0B53EC102B51EC100BFCF776
:103430002EFF53EC192BFDF74CF953EC1E2BFDF727
:103440004BF941EC190B53EC1C2B51EC1B0BFDF70A
:1034500043F941EC1B0B53EC1A2B51EC190BFCF705
:1034600016FF53EC1D2BFDF734F941EC190B53EC0F
:103470001A2B51EC180BFCF70AFF53EC1B2BFCF733
:1034800006FF53EC192BFDF721F99DED000B41ECE4
:10349000180B53EC1A2B51EC100BFCF7F8FE9FEDB8
:1034A000249B53EC192BFDF714F941EC100B51EC54
:1034B000180B53EC102BFDF709F953EC192BFDF702
:1034C00008F941EC100B002D3FF7C5AE51EC100B85
:1034D00081F0004141EC100BBDE60000000000004F
:1034E0000000F03F00000000075C143326A6913C6A
:1034F000182D4454FB21F93F0000F07F0000E03F0D
:10350000000000000000F03F281B0000361B0000F8
:10351000000000000000E03F7A1A0000881A000056
:103520003333EF3F000000000000000000000040C7
:10353000182D4454FB21E93F70B59B482DED020B3B
:103540002DED068B079D25F00044A04218DC97481E
:10355000844202DC0AD1069840B19DED060BBDEC19
:10356000068B02B0BDE8704000F00DBB002DCCBF53
:103570009FED8F0B9FED900BBDEC068B02B070BDE5
:103580008F48A04215DD8F48A042D8BF4FF0FF34CE
:1035900058DD9DED060B51EC100BFFF7F2FD0428F2
:1035A00008BF00F015FB9DED060BBDEC068B02B0CD
:1035B00070BD9DED060B51EC100B00F069FBCDE9E1
:1035C000060181489FED828BA0423CDD8248A042EB
:1035D0001FDD00249FED82AB9DED060B53EC1A2BF3
:1035E00051EC100BFCF7D1FF9DED060B41EC190BD4
:1035F00053EC1A2B51EC100BFCF749FE53EC182B33
:10360000FDF764F853EC192BFDF766F8CDE90601D8
:1036100049E09DED060B012453EC182B51EC100BE7
:10362000FCF7B3FF9DED060B41EC190B53EC182B87
:1036300051EC100BFDF74AF853EC192BFDF74CF841
:10364000CDE906012FE06848A0421FDD02249FED6E
:10365000689B9DED060B53EC192B51EC100BFCF7FE
:1036600016FE53EC182BFCF790FF9DED060B41EC7A
:10367000180B53EC192B51EC100BFDF727F853ECFA
:10368000182BFDF729F8CDE906010CE09DED060B9E
:10369000032453EC102B9FED580B51EC100BFDF74E
:1036A0001BF8CDE906019DED060B53EC102B51ECF8
:1036B000100BFCF7ECFD41EC180B53EC182BFCF74E
:1036C000E6FD41EC190B4E480621B0EE490AF0EE3A
:1036D000690A784400F0DBF953EC182B51EC100B1D
:1036E000FCF7D5FD41EC180B4648B0EE490AF0EE68
:1036F000690A0521784400F0CAF953EC192B51EC02
:10370000100BFCF7C4FD41EC100B51EC180B53EC03
:10371000102B002C0EDAFCF738FF9DED061B53EC46
:10372000112BFCF7B4FD9DED061B53EC112BFCF7A0
:10373000D0FF35E0FCF729FF9DED061B53EC112B64
:10374000FCF7A5FD41EC100B2F48784400EBC400BA
:1037500090ED001B51EC100B53EC112BFCF7B6FF56
:103760009DED061B53EC112BFCF7B0FF41EC100B49
:103770002648784400EBC40090ED001B51EC100B80
:1037800053EC112BFCF7A5FF41EC100B002DA2BF51
:10379000BDEC068B02B070BD51EC100B81F0004106
:1037A00041EC100B01E70000000010440000F07F26
:1037B000182D4454FB21F93F182D4454FB21F9BF27
:1037C0000000DC3F0000203E0000F33F000000004E
:1037D000000000000000F03F0000E63F0000000095
:1037E00000000000000000400080034000000000D6
:1037F000000000000000F83F000000000000F0BFE3
:10380000CA170000801700000A170000C216000047
:1038100070B56B4E2DED040B2DED028B82B0DDF8F3
:103820001CC0DDE905235C422CF000411C4341EA49
:10383000D474049D22F00040B44205D86C422C435D
:1038400040EAD474B4420BD99DED061B9DED040BE8
:1038500002B0BDEC028B04B0BDE8704000F09DB931
:10386000ACF14054A4F17F641C430BD0022404EA61
:10387000AC7444EAD27405439FED538B9FED542BF7
:1038800007D015E09DED040B51EC100B00F0DBF9B7
:1038900042E0002C11BF012C9DED040B02B0BDECE9
:1038A000028B04BF04B070BD022C38D0032C3BD077
:1038B0000B439FED491B9FED4A0B0AD0B14218D133
:1038C000B04209D121F0804120F08040079105905D
:1038D0000FE0002A15DA10E0434B7B44002C08BFB0
:1038E00093ED000B0DD0012C10D0022C17D0032C1F
:1038F0001AD0B0421DD1002A03DAB0EE410AF0EE30
:10390000610A02B0BDEC028B04B070BD93ED000BF8
:1039100051EC100B81F0004141EC100BF1E7B0EEDF
:10392000480AF0EE680AECE7B0EE420AF0EE620AEE
:10393000E7E7401A00153C28C8BF8DED000B19DCE5
:10394000BCF1000FBEBF10F13C0F9FED290B8DEDB8
:10395000000B0FDB9DED060B53EC102B9DED040BC4
:1039600051EC100BFCF7B8FE00F092F900F06BF987
:10397000CDE90001002C08BF9DED000BC1D0012C4A
:1039800010D0022C9FED1C0B53EC102B9DED000B67
:1039900051EC100B0DD0FCF799FE53EC182BFCF7F3
:1039A00095FEB9E7019880F0004001909DED000B75
:1039B000A7E7FCF78BFE53EC182BFCF78AFEABE76E
:1039C0000000F07F00000000182D4454FB21094046
:1039D000182D4454FB2109C0182D4454FB21F9BF74
:1039E000182D4454FB21F93FF2150000000000009F
:1039F0000000000000000000075C143326A6A13C74
:103A00002DED020B019820F0004001909DED000B80
:103A100002B0704700B52DED048BB0EE409AF0EE89
:103A2000609A83B051EC190BFCF7C5FE41EC180B02
:103A300018EE100A18EE901A8DED008B002818BFB2
:103A40000120084320F00040C0F17F6000F1E04019
:103A5000C00F14D019EE101A19EE900A8DED009BCC
:103A6000002918BF0121084320F00040C0F17F6009
:103A700000F1E040C00F04BF012000F0C9F8B0EE33
:103A8000480A03B0F0EE680ABDEC048B00BD70B5C7
:103A900004462DED028B4D1E00EBC500B0EE408AB2
:103AA000F0EE608A90ED000B35F0060017D053EC75
:103AB000182B51EC100BFCF7EAFB41EC100B6D1EC0
:103AC00004EBC50090ED001B51EC100B53EC112BD7
:103AD000FCF75BFD41EC100B35F00600E7D1022D41
:103AE00036D0042D1CD0062D1CBFBDEC028B70BD42
:103AF00053EC182B51EC100BFCF7C9FB94ED0A1B8F
:103B000053EC112BFCF741FD53EC182BFCF7BFFBDA
:103B100094ED081B53EC112BFCF737FD41EC100B17
:103B200053EC182B51EC100BFCF7B1FB94ED061B7A
:103B300053EC112BFCF729FD53EC182BFCF7A7FBDA
:103B400094ED040B53EC102BFCF71FFD41EC100B14
:103B500053EC182B51EC100BFCF799FB94ED021B66
:103B600053EC112BFCF711FD53EC182BFCF78FFBDA
:103B700094ED001B53EC112BFCF707FDBDEC028B01
:103B800041EC100B70BD10B553EC102B51EC100B29
:103B9000FCF7FBFC41EC100B10BD10B553EC112BE6
:103BA00051EC100BFCF7F1FC41EC100B10BD0000C8
:103BB0009FED050B10B553EC102B51EC100BFCF7DF
:103BC0008BFD41EC100B10BD000000000000000058
:103BD0009FED050B10B553EC102B51EC100BFCF7BF
:103BE00056FB41EC100B10BD00000000000000105F
:103BF00002E008C8121F08C1002AFAD170477047B6
:103C0000002001E001C1121F002AFBD17047000013
:103C1000014908607047000090000020D0ED000AC4
:103C2000F4EEC00AF1EE10FA01DD80ED000AD0EDED
:103C3000000AB1EE400AF4EEC00AF1EE10FA01D229
:103C400080ED000A704710B541EC100BFFF774FCD3
:103C500051EC100B10BD000000B58BB0002001210D
:103C6000CDE9060108910090019002900390059023
:103C7000049069460548FCF727FF0448FDF724FA3D
:103C800002210248FCF7AAFE0BB000BD9400002000
:103C900082B0CDE9000121F0004001909DED000BC4
:103CA00002B051EC100B704770B52C4C01460578F2
:103CB000208F0022401C83B2A52D19D191F8370026
:103CC0005A2815D101200D5C401CC0B22A44362868
:103CD000F9D391F83610D0B2884209D11F49342265
:103CE000393948782070201D891CFCF7ACFA00E0B7
:103CF00023871B4D94ED010A04F1080085ED000AAD
:103D0000D4ED061A0321FCEEE11A11EE903A90EC84
:103D1000040A12483C30FCEEE11A11EE902A01F040
:103D20000BF8D4ED0B1A04F11C000321FCEEE11A90
:103D300011EE903A90EC040A0848A830FCEEE11A23
:103D400011EE902A00F0F8FF94ED0C0A85ED010ABF
:103D500094ED0D0A85ED020A70BD00007C03002081
:103D60008400002010B5FF4CFF482DED108B94ED22
:103D7000010AD4ED010A20EE20FA94ED010AD4EDF7
:103D8000020A20EE20CA94ED010AD4ED030A60EE87
:103D900020BA94ED010AD4ED040A60EE20CA94ED35
:103DA000020AD4ED020A20EE20DA94ED020AD4EDE4
:103DB000030A20EE209A94ED020AD4ED040A20EEC4
:103DC00020BA94ED030AD4ED030A60EE20AA94ED24
:103DD000030AD4ED040A20EE20AA94ED040AD4EDDF
:103DE000040A60EE209A90ED040A84ED050A90ED35
:103DF000050A84ED060A90ED060A84ED070AB0F97B
:103E0000001000EE101AB8EEC00A84ED080AB0F9EE
:103E1000021000EE101AB8EEC00A84ED090AB0F9DB
:103E2000041000EE101AB8EEC00A84ED0A0AB0F9C8
:103E3000061000EE101AB8EEC00A84ED0B0AB0F9B5
:103E4000081000EE101AB8EEC00A84ED0C0AB0F9A2
:103E50000A0000EE100AB8EEC00A84ED0D0AFDF764
:103E600033FCE063E06BA16B401A00EE100AB8EE81
:103E7000400ADFEDBE0AE06BC0EE208AA06394ED3D
:103E8000080AD4ED080A94ED091A20EE200AD4EDB0
:103E9000090A00EE810AD4ED0A0A94ED0A1A00EE2E
:103EA000810A00F055FBD4ED080A60EE800AC4EDEB
:103EB000080AD4ED090A60EE800AC4ED090AD4EDBF
:103EC0000A0A20EE800A84ED0A0A94ED0B0AD4ED6A
:103ED0000B0A94ED0C1A20EE200AD4ED0C0A00EE29
:103EE000810AD4ED0D0A94ED0D1A00EE810A00F05E
:103EF0002FFBD4ED0B0AB6EE001AB0EE008A60EE8E
:103F0000800A39EE6CEA7BEE2B1AC4ED0B0AD4ED75
:103F10000C0A60EE800AC4ED0C0AD4ED0D0A20EE06
:103F2000800A71EE6A0A31EE4D1A84ED0D0A94EDA5
:103F30000B0A70EEE9EA31EE692A20EE080A71EE0A
:103F40006ADA60EE2E0A94ED0C0A20EE080A40EEC2
:103F50000E0A94ED0D0A20EE080A40EE210A94EDB7
:103F60000B0A79EE2C1A7BEE6BCA20EE080A60EE83
:103F7000A00A20EE210AD4ED0C1A61EE881A01EE97
:103F8000820AD4ED0D1A3AEE4C2A61EE881A01EE3F
:103F9000820AD4ED0B1A3AEE0C2A61EE881A40EE32
:103FA000000A21EEAC9AD4ED0C1A10EE900A61EEE4
:103FB000881A01EE829AD4ED0D1A61EE881A01EE8C
:103FC000AD9AFCF7E7F941EC100BFFF723FD51EC3C
:103FD000100BFCF70BFA00EE900A7CEE0A2A3FEE7B
:103FE0004D1A60EE880A69EE083A22EE880A31EE30
:103FF0006A1A60EE8E1A94ED0D4A2CEE882A31EE84
:10400000293A43EEA21A7BEE8B2A20EEAE1A60EE1E
:10401000A22AD4ED090A03EEAC1A43EEAD2A60EEF3
:10402000830AD4ED0A3A43EEC00AD4ED0C3A63EEAB
:10403000A23A44EE613A94ED084A70EEA30AD4ED38
:104040000A3A63EE823AF5EEC00A44EE433A94ED42
:104050000D3A94ED0B4A23EE013A04EE623A73EE08
:10406000832A94ED083A23EE000A94ED093A03EE10
:10407000420A94ED0B2A62EE211A94ED0C2A42EECC
:10408000411A30EE210AF1EE10FA41D0F5EEC02AC5
:10409000F1EE10FA3CD0B5EEC00AF1EE10FA37D0CE
:1040A000D4ED101A9FED321A20EE812A42EE281A22
:1040B00022EE812AC4ED101AD4ED111A42EE281A0C
:1040C000C4ED111A60EE011A94ED121A01EEA81A4D
:1040D00084ED121A94ED051A00EE881AD4ED100A38
:1040E00071EE200AC4ED050AD4ED060A94ED111A0A
:1040F00042EE880A70EE810AC4ED060AD4ED070A82
:1041000040EE080A94ED120A30EE800A84ED070AA8
:1041100094ED020AD4ED050A94ED061A94ED013AE5
:1041200020EEC00AD4ED030A00EEC10AD4ED040A61
:1041300094ED071A00EEC10AD4ED050A94ED071AB2
:1041400000EE283A94ED010A20EE200AD4ED030A8D
:1041500000EE810AD4ED040A94ED061A00EEC10ABD
:1041600008E0000024000020C00200200000FA4403
:104170000AD7233CD4ED021AD4ED060A94ED071AAF
:1041800040EE281A94ED010A94ED032AD4ED042A96
:1041900020EE200AD4ED020A00EEC10AD4ED040A92
:1041A00094ED051A00EE810AD4ED070A94ED061A83
:1041B00000EE282A94ED010A20EE200AD4ED020A2E
:1041C00000EE810AD4ED030A94ED051A00EEC10A4F
:1041D00040EE282A23EE030A01EEA10A02EE020AAB
:1041E00002EEA20A00F0B4F963EE000AC4ED010A7F
:1041F00061EE800AC4ED020A62EE000A22EE800A35
:10420000C4ED030A84ED040ABDEC108B10BD000060
:1042100070B5564C2DED068BF8EE008AB0EE008A94
:10422000B7EE00AA94ED030AD4ED030A94ED041A44
:1042300020EE280A20EE200AD4ED040A60EE880A57
:1042400000EEC10A30EE0A0A10EE100AFCF7A2F8DE
:1042500094ED020AD4ED030A94ED041A20EE080A44
:1042600041EC190B20EE200AD4ED010A60EE880A19
:1042700000EE810A10EE100AFCF78CF841EC100BEE
:10428000B0EE491AF0EE691AFFF7C2FA9FED389BBB
:1042900051EC100B53EC192BFBF7F9FFFCF7A6F8C8
:1042A000354D286394ED020AD4ED040A94ED031A07
:1042B00020EE280A20EE200AD4ED010A60EE880ADA
:1042C00000EE810A10EE100AFCF764F841EC100BC6
:1042D000FEF782FF53EC192B51EC100BFBF7D7FFC5
:1042E000FCF784F8E86294ED020AD4ED020A94ED3A
:1042F000031A20EE280A20EE200AD4ED030A60EE0D
:10430000880A00EEC10A30EE0A0A10EE100AFCF725
:1043100041F894ED030AD4ED040A94ED021A20EE5C
:10432000080A41EC190B20EE200AD4ED010A60EED8
:10433000880A00EE810A10EE100AFCF72BF841EC17
:10434000100BB0EE491AF0EE691AFFF761FA9FED13
:104350000B1B51EC100B53EC112BFBF798FFFCF7E8
:1043600045F8A862BDEC068B70BD0000240000205B
:104370006666666666A64CC0C00200206666666613
:1043800066A64C4010B559482DED0A8BB0F90610C1
:10439000B0F908009FED569BDFED57BA574C9FEDE3
:1043A000588A9FED58BADFED58AA9FED58AADFED65
:1043B000588A00294EDA9FED57CA00282ADA91FB65
:1043C000F0F0FBF7D6FF41EC100BFFF719FB53ECB5
:1043D000192B51EC100BFBF7F1FF0AD8C4ED01BA11
:1043E00084ED028A9FED4C0A84ED030A9FED4B0A8F
:1043F0000BE09FED4B0A84ED010A9FED4A0A84ED24
:10440000020A84ED03BA9FED480A84ED040ABDEC6C
:104410000A8B10BDFBDD91FBF0F0FBF7AAFF41EC2E
:10442000100BFFF7EDFA53EC192B51EC100BFBF7C7
:10443000C5FF84ED01CA06D884ED028AC4ED03AA43
:104440009FED3A0AE1E784ED02AAC4ED038A9FEDED
:10445000380ADAE7DBDD00289FED36CA22DD91FB62
:10446000F0F0FBF786FF41EC100BFFF7C9FA53ECB5
:10447000192B51EC100BFBF7A1FF0AD89FED2E0A68
:1044800084ED010AC4ED02AA84ED038AC4ED04BAE6
:10449000BDE79FED2A0A84ED010AC4ED028A84ED8E
:1044A00003AAB2E7B3DA91FBF0F0FBF762FF41EC4D
:1044B000100BFFF7A5FA53EC192B51EC100BFBF77F
:1044C0007DFF84ED01CA08D89FED1D0A84ED020A24
:1044D00084ED038A9FED1B0A97E79FED1B0A84ED8D
:1044E00002BA84ED030A9FED190A8EE7C00200208C
:1044F000000000000000F03F0AD7A3BB240000200A
:10450000A8C64BBEE17A543F355E7ABF68910DBFB5
:10451000E17A54BF0AD7A33BBE9F7A3F4ED111BC6C
:104520006F1203BC7B140EBF6F1203BBA69B443CEF
:1045300099BB16BB0AD7233B52499D3A99BB163B00
:10454000355E7A3F6F12033C295C0FBFBC74933B0E
:1045500010EE100AF6EE000A074960EE200AA1EB01
:10456000600000EE100A20EE801AF7EE080A41EE15
:10457000400A20EE800A7047DF59375F0622014665
:10458000492000F095BA10B530216A2000F0C8FA31
:104590000A20FCF797FF0D21242000F0C1FA0A2021
:1045A000FCF790FF0E21282000F0BAFA0A20FCF751
:1045B00089FF8E21312000F0B3FA0A20FCF782FF38
:1045C00001210B2000F07BF80A20FCF77BFF002084
:1045D00000F059F8102801D0012010BD01210B2056
:1045E00000F06DF80A20FCF76DFF00210A2000F0B2
:1045F00066F80A2000F047F808B1022010BD0A2032
:10460000FCF760FF00210B2000F059F80B2000F0B0
:104610003AF808B1032010BD0A20FCF753FF24210B
:10462000412000F04CF8412000F02DF8242801D062
:10463000042010BD0A20FCF745FFC021422000F0F5
:104640003EF8422000F01FF8C02801D0052010BD20
:104650000A20FCF737FF00212A2000F061FA0A2027
:10466000FCF730FF0021342000F05AFA0A20FCF752
:1046700029FF062203210E2000F058F96420FCF7E0
:1046800021FF002010BD10B50146322000F048FA8D
:104690000A20FCF717FF8021342000F041FA0A209D
:1046A000FCF710FF352000F0DBF904460021342030
:1046B00000F036FA0A20FCF705FF204610BD70B561
:1046C0000D46044600212A2000F02AFA0220FCF7B9
:1046D000F9FE2146292000F023FA0220FCF7F2FE21
:1046E0002946642000F01CFA0220FCF7EBFE812131
:1046F0002A2000F015FABDE870400A20FCF7E2BE5F
:104700002DED028BFCF7EEFFFEF728FAFEF7A6F878
:10471000FEF786F8FEF762F8FEF70CF9FEF72EF9C1
:10472000FEF750F9FEF780F92148FDF71DFDFCF773
:10473000B7F8FFF791FA00F047F8FFF723FE9FED77
:104740001D8A4FF4FA6441F27075B0EE481AF0EE2B
:10475000480AB1EE040A23462A460321164800F00F
:10476000EBFAB0EE481AF0EE480AB1EE040A23461E
:104770002A460321114800F0DFFA0F48B3EE0E0A73
:104780000F4D80ED140A0D480E4C80ED140A287868
:10479000012806D02088401C20800548FDF7F5FC44
:1047A000F5E76068401C60600148FDF7DDFCEEE75E
:1047B00014010020CDCCCC3DB803002024040020FF
:1047C0007C0300200000002030B585B06420FCF799
:1047D00079FE752000F044F91249002414228870F3
:1047E00011496846FBF72FFD4FEA0D0505EB440024
:1047F000417815F8140000F093F90120FCF762FEEF
:10480000641CE4B20A2CF1D3032000F084F90220E6
:1048100000F07CF9FFF7B7FE00F0D0F805B00020FB
:1048200030BD000024000020D44D000810B50E2239
:1048300039493B2000F03CF9374800F10E0401886B
:1048400049BA2180418849BA6180818849BAA180EA
:10485000C18849BAA1810189628B49BA891AE1816B
:104860004189A28B49BA891A21828089E18B40BA99
:10487000401A60822948FFF781FE2849A4F14200CE
:104880004C399FED271ACA6C8264B1F85010A0F819
:104890004C10D0F842100160D0F846104160D0F8BA
:1048A0004A108160B4F90C0000EE100AA4F1420035
:1048B000F8EEC00A80EE810AF3EE050A30EE200A17
:1048C00080ED030AB4F90E1000EE101AF8EEC00ADB
:1048D0009FED140A80EE801ADFED130AC1EE201A54
:1048E000C0ED041AB4F9101001EE101AF8EEC11A56
:1048F00081EE801AC1EE201AC0ED051AB4F912102B
:1049000001EE101AF8EEC11A81EE801A81EE200A2B
:1049100080ED060A10BD0000F402002070000020A7
:104920005CEFA6436F1283413333654270B50E4688
:10493000044601461546282000F0F2F80220FCF754
:10494000C1FD0A21292000F0EBF80220FCF7BAFD96
:104950000121642000F0E4F80220FCF7B3FD44F0EC
:104960008001252000F0DCF80220FCF7ABFD314689
:10497000262000F0D5F80220FCF7A4FD0321342006
:1049800000F0CEF80220FCF79DFD0321672000F027
:10499000C7F80220FCF796FD81212A2000F0C0F81C
:1049A0000620FCF78FFD45F08001272000F0B8F8C5
:1049B000BDE870400220FCF785BD00002DE9F04104
:1049C000264E002706F10E044FF496750E22234959
:1049D0003B2000F06DF83188A08A49BA0844A082D3
:1049E0007188E08A49BA0844E082B188208B49BACC
:1049F000084420833189608B49BA084460837189F7
:104A0000A08B49BA0844A083B189E08B49BA084415
:104A1000E0830520FCF756FD7F1CAF42D6DBB4F9DE
:104A2000140090FBF5F0A082B4F9160090FBF5F0AD
:104A3000E082B4F9180090FBF5F02083B4F91A0075
:104A400090FBF5F000B2608390FBF5F0A083B4F921
:104A50001E0090FBF5F0E083BDE8F081F402002039
:104A6000F8B5104E0446002240213046FCF726FEE1
:104A700044F080000C4C3725621C20700123511E2D
:104A80000A480095FDF7D0F9621C0123511E074822
:104A90000095FDF7C9F9012240213046FCF70EFED2
:104AA0006078F8BD0014024024000020BC00002003
:104AB000F8B5134F15460E460446002240213846ED
:104AC000FCF7FCFD0F4944F0800037240870523198
:104AD000A1F151020870012352390B480094FDF7EF
:104AE000A3F908492B463246523107480094FDF796
:104AF0009BF9012240213846FCF7E0FD0020F8BD7B
:104B00000014024024000020BC000020C006010E5A
:104B10001C2000F005B8C006010E1B20AFF300807A
:104B2000F8B5114F0E460446002240213846FCF7E6
:104B3000C5FD04F07F000D4C3725621C2070012359
:104B4000511E0B480095FDF76FF92670621C01237A
:104B5000511E07480095FDF767F9012240213846AC
:104B6000FCF7ACFD0020F8BD00140240240000203A
:104B7000BC00002000B530EEC01A80ED080AC0ED80
:104B8000050A80ED0B1AD0ED141A01469FED692A33
:104B900030EEC00AF5EEC01AB1EE400AF1EE10FA9E
:104BA0000ED0B5EEC01AF1EE10FA02DDF0EE410AB9
:104BB00001E0F0EE400AF4EEE10AF1EE10FA12DC48
:104BC000D1ED150AF5EEC00AF1EE10FA0ED0B5EEF1
:104BD000C01AF1EE10FA01DDB0EE410AB4EEE00ABF
:104BE000F1EE10FA02D2B0EE420A00BD886D01F17A
:104BF0003402032802D0042838D07AE091ED000A6C
:104C0000104620EE010A81ED0C0A91ED0D0AD1ED5E
:104C1000010A00EE810A81ED0D0A91ED0A0AD1ED3B
:104C2000020A31EE400A20EE200A81ED0E0A91EDD3
:104C3000180AB8EE400AFEF7F1FF91ED0C0AD1ED2B
:104C40000D0A01F13C0030EE200AD1ED0E0A30EEE3
:104C5000200A81ED0F0A91ED170AB8EE400AFEF71F
:104C6000DDFF91ED0F0A81ED100A42E091ED0A0A95
:104C7000D1ED001A104671EE400A60EEA10AC1EDB6
:104C80000C0AD1ED010A60EE810AC1ED0D0AF0EEC9
:104C9000000A00EE601A91ED090AD1ED020A31EE28
:104CA000000A20EE200A81ED0E0A91ED180AB8EEF6
:104CB000400AFEF7B3FF91ED0C0AD1ED0D0A01F1A8
:104CC000480030EE200AD1ED0E0A30EE200A81EDC8
:104CD000110AD1ED130A30EE800A81ED120A91ED2E
:104CE000170AB8EE400AFEF799FF91ED120A81ED1E
:104CF000130A91ED0A0A81ED090A91ED0B0A81ED83
:104D00000A0A91ED070A81ED060A91ED080A81ED84
:104D1000070A91ED040A81ED030A91ED050A81ED80
:104D2000040A886D032802D091ED120A00BD91EDAE
:104D30000F0A00BD0000000000F1580C8CE80E00C6
:104D400080EC030A704700B52DED048B83B041EC75
:104D5000190BFBF730FD41EC180B18EE100A18EE9A
:104D6000901A8DED008B002818BF0120084320F019
:104D70000040C0F17F6000F1E040C00F14D019EE98
:104D8000101A19EE900A8DED009B002918BF012121
:104D9000084320F00040C0F17F6000F1E040C00F08
:104DA00004BF0120FEF734FF51EC180B03B0BDEC3B
:104DB000048B00BD0006101600061016000000004F
:104DC00000000000010203040607080900000000BB
:104DD000010203046B806B036C001A041B181C1087
:104DE0001D026A2000000000555555555555C53F18
:104DF0007D6FEB0312D6D4BF5544880E55C1C93F11
:104E00003B8F68B52882A4BF88B20175E0EF493FA7
:104E100009F7FD0DE13D023F4B2D8A1C273A03C0E7
:104E2000C88A599CE52A004059018D1B6C06E6BFD3
:104E300082922EB1C5B8B33F4FBB610567ACDD3F71
:104E4000182D4454FB21E93F9BF681D20B73EF3FB1
:104E5000182D4454FB21F93FE2652F227F2B7A3C29
:104E6000075C143326A6813CBDCBF07A8807703CE2
:104E7000075C143326A6913CC4EB98999999C9BF55
:104E8000711623FEC671BCBF6D9A74AFF2B0B3BF8A
:104E90009AFDDE522DDEADBF2F6C6A2C44B4A2BF4A
:104EA0000D5555555555D53FFF8300922449C23FB6
:104EB0006E204CC5CD45B73F513DD0A0660DB13FEA
:104EC000EB0D76244B7BA93F11DA22E33AAD903FFC
:104ED0000000000000000000F84E00080000002064
:104EE00094000000F03B00088C4F00089400002064
:104EF000FC070000003C000800000000000000006B
:104F00000000000001000000100000000000000090
:104F10000024F40000000000000000000000000079
:104F20000000803F000000000000000000000000C2
:104F30000000000000000000000000000000000071
:104F40000000000000000000000000000000000061
:104F50000000000000000000000000000000000051
:104F60000000000000000000000000000000FF0042
:104F70000000000000000000000000000000000031
:0C4F800000000000000000000000000025
:04000005080001AD41
:00000001FF
